:020000041000EA
:1000000000B5324B212058609868022188439860DF
:10001000D860186158612E4B002199600221596106
:100020000121F02299502B49196001219960352056
:1000300000F044F80222904214D00621196600F024
:1000400034F8196E01211966002018661A6600F04E
:100050002CF8196E196E196E052000F02FF8012189
:100060000842F9D1002199601B49196000215960AB
:100070001A491B48016001219960EB211966A021F2
:10008000196600F012F800219960164914480160C1
:100090000121996001BC002800D000471248134993
:1000A000086003C880F30888084703B5996A0420EC
:1000B0000142FBD001200142F8D103BD02B5186610
:1000C0001866FFF7F2FF186E186E02BD00000240BE
:1000D000000000180000070000035F00212200005C
:1000E000F4000018222000A00001001008ED00E03C
:1000F00000000000000000000000000074B24E7A12
:1001000000200420F7010010C3010010C5010010F9
:10011000C1010010C1010010C1010010C101001097
:10012000C1010010C1010010C1010010C701001081
:10013000C1010010C1010010C9010010CB01001065
:10014000CD010010CD010010CD010010CD01001037
:10015000CD010010CD010010CD010010CD01001027
:10016000CD010010CD010010CD010010CD01001017
:10017000CD010010CD010010CD010010CD01001007
:10018000CD010010CD010010CD010010CD010010F7
:10019000CD010010CD010010CD010010CD010010E7
:1001A000CD010010CD010010CD010010CD010010D7
:1001B000CD010010CD010010CD010010CD010010C7
:1001C00000BE00BE00BE00BE00BE00BE00F04BF888
:1001D000103800BEF2EB88718CDF0010ACDF00102D
:1001E0003402001090A31AE700202149086006C8D5
:1001F00081F3088810471F48006800282FD10DA4FC
:100200000ECC002902D000F012F8F9E71A491B4A77
:10021000002000E001C19142FCD1194988471949E9
:1002200088471949884700BEFDE701C901C29A42C3
:10023000FBD37047ACDF0010C0000020600D002031
:100240004CEC001000000420000004204CEC0010D6
:1002500000100420001004200000000070470B482C
:1002600006F0A8FD0047EFF30580C0B2704700001C
:1002700008ED00E0000000D0600D00202C1B0020E5
:10028000ED5600103D050010A9560010575600000D
:1002900006005250ABB3605378D60010060052509F
:1002A000861C030288D60010060052505422A29DDC
:1002B00094D6001005005250DE65F4684CEC001036
:1002C000F8B5C04610B5064C2378002B07D1054B76
:1002D000002B02D0044800E000BF0123237010BDB2
:1002E000680E00200000000078C10010044B10B51B
:1002F000002B03D00349044800E000BF10BDC046F6
:10030000000000006C0E002078C1001010B505A898
:10031000047806A800788A4200D010BD844203D039
:100320000A4807F04BFEF8E7462B07D0522B09D0BE
:100330004C2BF5D14B3B039A1370F1E70122029944
:100340000A70F3E7012204990A70F1E778C10010FE
:10035000F0B5CE46474680B583B005000C001600C8
:100360000AAB1B7899460BAB1B789846164807F0EA
:1003700025FE2768330046220421380003F062FB83
:10038000020020603900280003F033F9009646236C
:1003900022683900280002F035FF4B46002B07D1B8
:1003A0004346002B0AD103B0C0BCB946B046F0BDED
:1003B00022683900280003F051F9F1E7226839007A
:1003C000280003F080F9EEE790C10010F0B5D646A2
:1003D0004F464646C0B582B005000C0017009A464D
:1003E0000AAB1B7899460BAB1B789846184807F068
:1003F000E5FD266853461E603B0052220421300072
:1004000003F020FB020020603100280003F0F1F827
:100410000097522322683100280002F0F3FE4B4679
:10042000002B08D14346002B0BD102B0E0BCBA46EA
:10043000B146A846F0BD22683100280003F00EF94D
:10044000F0E722683100280003F03DF9EDE7C046EF
:10045000A0C10010F0B5D6464F464646C0B582B0A2
:1004600005000C0017009A460AAB1B7899460BABA7
:100470001B789846184807F0A1FD266853461E6071
:100480003B004C220421300003F0DCFA0200206023
:100490003100280003F0ADF800974C2322683100AA
:1004A000280002F0AFFE4B46002B08D14346002B3C
:1004B0000BD102B0E0BCBA46B146A846F0BD2268F6
:1004C0003100280003F0CAF8F0E722683100280064
:1004D00003F0F9F8EDE7C046B0C1001070B50D00AB
:1004E0001C00044807F06AFD2B6822682A6023601C
:1004F00070BDC046C0C1001070B50D001C0004489E
:1005000007F05CFD2B6822682A60236070BDC0463E
:10051000D0C10010F8B50C0016001D00064807F009
:100520004DFD2768330042220421380003F08AFA87
:1005300020602F60F8BDC046E0C10010F0B5DE4677
:1005400057464E464546E0B58DB007F075FD19207B
:1005500003F058FBD0231B06802292045A625A6192
:10056000FA20C00004F086FC994807F027FD00241B
:1005700002E0984807F022FD002C14D107A80AF0E9
:100580001BFC07A9944807F04BFD07A80AF06CFB79
:100590000A900F28EDDC914807F010FD0A9B984661
:1005A00009930124E8E70A998D4807F039FD0421F1
:1005B000042001F061FE04002F266E4400253570F2
:1005C0002E236B441D702D236B441D700A9B0993D1
:1005D00008A984480AF016FF0195009509AB4E2240
:1005E0000AA92000FFF7B4FE4623099A0A997E481B
:1005F00007F016FD3378002B1ED02D236B441B789B
:10060000AB4202D04623994618E00A9B099308A9F9
:1006100076480AF0F7FE0195009509AB4E220AA92B
:100620002000FFF7D3FE5223099A0A996E4807F07B
:10063000F7FC5223994601E0462399462F236B4449
:100640001B78002B09D02D236B441B78002B04D082
:100650002E236B441B78002B60D02F236B441B7818
:10066000002B18D02D236B441B78002B13D02E2386
:100670006B441B78002B0ED04B46522B66D04B465A
:100680004C2B6ED04B46462B76D04B46099A0A9996
:10069000574807F0C5FC0999200003F02BFA200009
:1006A00003F080F9002872D14E23049303932D2682
:1006B0006E4402962E276F4401972F256D440095B6
:1006C0004B460A9A41462000FFF720FE01232B707B
:1006D00000239A463B7033700A9B099308A943484C
:1006E0000AF090FE53460193009309AB4E220AA9EB
:1006F0002000FFF76BFE5223099A0A993A4807F047
:100700008FFC2B78002B79D03378534500D14DE105
:100710003B78534543D052239A4671E00A9B099394
:1007200008A934480AF06EFE00230193009309AB38
:100730004E220AA92000FFF78DFE4C23099A0A9940
:10074000294807F06DFC4C23994686E709AB4E22F9
:100750000AA92000FFF7C2FE2D236B4401221A7064
:100760008DE709AB4E220AA92000FFF7C5FE2E2314
:100770006B4401221A7085E709AB4E220AA92000BA
:10078000FFF7C8FE2F236B4401221A707DE70A99F8
:10079000200003F0AFF9184807F010FC84E70A9B2B
:1007A000099308A913480AF02DFE534601930093BC
:1007B00009AB4E220AA92000FFF74CFE4C23099AF0
:1007C0000A99094807F02CFC4C239A4618E0C046C9
:1007D000E8C1001034C2001010C200101CC200108A
:1007E00058C2001070C2001074C20010B4C20010D1
:1007F000BCC20010B8C2001004C3001052239A46B5
:100800002F236B441B78002B1BD02D236B441B78AC
:10081000002B16D02E236B441B78002B11D053468F
:10082000522B00D1C5E053464C2B00D1CCE05346AF
:10083000462B00D1D3E05346099A0A99E14807F0C4
:10084000EFFB0999200003F055F9200003F0AAF806
:10085000002800D0CEE045230493093303932D25CF
:100860006D4402952E266E4401962F276F44009703
:100870004B460A9A41462000FFF748FD01233B7092
:1008800033702B705346522B00D1BBE053464C2B98
:1008900000D1C0E05346462B00D1C7E05346099A29
:1008A0000A99C84807F0BCFB0999200003F022F917
:1008B000200003F077F8002800D0C2E04E23049314
:1008C00003932D266E4402962E276F4401972F2501
:1008D0006D4400954B460A9A41462000FFF716FDED
:1008E00001232B70002292463A7033700A9B0993C1
:1008F00008A9B5480AF086FD53460193009309AB59
:100900004E220AA92000FFF7A5FD4C23099A0A9957
:10091000AE4807F085FB2B78002B06D03378534583
:1009200003D03B78534500D093E00999200003F0B1
:10093000E1F8200003F036F8002800D098E05723B3
:100940000493093B03932D266E4402962E276F4491
:1009500001972F256D4400954B460A9A4146200089
:10096000FFF7D4FC00239A462B703B7001333370A1
:100970000A9B099308A996480AF044FD534601933F
:10098000009309AB57220AA92000FFF7E1FC462398
:10099000099A0A998D4807F043FB2B78002B00D168
:1009A00085E0337853456BD0462581E052239A4643
:1009B00026E709AB4E220AA92000FFF78FFD2D2361
:1009C0006B4401221A702EE709AB4E220AA92000BF
:1009D000FFF792FD2E236B4401221A7027E709AB23
:1009E0004E220AA92000FFF795FD2F236B44012218
:1009F0001A7020E70A99200003F07CF8754807F088
:100A0000DDFA28E709AB45220AA92000FFF766FDB9
:100A100001222A703AE709AB45220AA92000FFF714
:100A20006BFD2E236B4401221A7033E709AB45227C
:100A30000AA92000FFF76EFD2F236B4401221A70D4
:100A40002CE70A99200003F055F8624807F0B6FA3F
:100A500034E709AB4E220AA92000FFF74DFD012221
:100A60003A704C23099A0A99564807F0D9FA5CE77C
:100A70000A99200003F03EF8564807F09FFA5EE717
:100A80000A9B099308A954480AF0BCFC53460193F9
:100A9000009309AB57220AA92000FFF797FC5223C5
:100AA000099A0A99494807F0BBFA522500E0462501
:100AB0002F236B441B78002B09D02D236B441B780C
:100AC000002B04D02E236B441B78002B62D02F23E5
:100AD0006B441B78002B17D02D236B441B78002B05
:100AE00012D02E236B441B78002B0DD0522D75D0C5
:100AF0004C2D00D17DE0462D00D185E02B00099AD8
:100B00000A99304807F08CFA0999200002F0F2FFA8
:100B1000200002F047FF002800D080E05723049314
:100B2000093B03932D266E4402962E276F440197AE
:100B30002F256D4400954B460A9A41462000FFF749
:100B4000E5FB01239B462B7000239A463B703370D4
:100B50000A9B099308A920480AF054FC5B460193BC
:100B60005346009309AB57220AA92000FFF72EFC39
:100B70005223099A0A99154807F052FA2B78002B4C
:100B80006DD03378534500D1C7E03B7853454ED004
:100B9000522565E00A9B099308A90B480AF032FC2C
:100BA00000230193009309AB57220AA92000FFF705
:100BB00051FC4C23099A0A99044807F031FA4C2554
:100BC00085E7C046BCC20010B8C2001074C2001055
:100BD00070C2001004C30010B4C2001009AB572249
:100BE0000AA92000FFF77AFC2D236B4401221A701A
:100BF0007EE709AB57220AA92000FFF77DFC2E23D0
:100C00006B4401221A7076E709AB57220AA920002B
:100C1000FFF780FC2F236B4401221A706EE70A99BC
:100C2000200002F067FFAC4807F0C8F976E70A9B9E
:100C3000099308A9A9480AF0E5FB5B4601935346CE
:100C4000009309AB57220AA92000FFF703FC4C23AD
:100C5000099A0A99A24807F0E3F94C2500E05225C9
:100C60002F236B441B78002B15D02D236B441B784E
:100C7000002B10D02E236B441B78002B0BD0522D51
:100C80004DD04C2D56D0462D5FD02B00099A0A9995
:100C9000944807F0C5F90999200002F02BFF2000C5
:100CA00002F080FE00285BD14E23049303932D268F
:100CB0006E4402962E276F4401972F256D440095B0
:100CC0004B460A9A41462000FFF720FB01232B7078
:100CD0003B70002737700A9B099308A982480AF0E5
:100CE00091FB0197009709AB4E220AA92000FFF75C
:100CF0006DFB5223099A0A99794807F091F92B78EC
:100D0000002B4BD03378BB4200D1A2E02E236B44A2
:100D10001B78BB422CD0522541E05225A0E709ABFD
:100D200057220AA92000FFF7D9FB2D236B4401228B
:100D30001A70A6E709AB57220AA92000FFF7DCFBCF
:100D40002E236B4401221A709DE709AB57220AA992
:100D50002000FFF7DFFB2F236B4401221A7094E77A
:100D60000A99200002F0C6FE5B4807F027F99BE7CE
:100D70000A9B099308A959480AF044FB0197009778
:100D800009AB4E220AA92000FFF764FB4C23099A05
:100D90000A99534807F044F94C2500E052252F23C7
:100DA0006B441B78002B15D02D236B441B78002B34
:100DB00010D02E236B441B78002B0BD0522D4AD021
:100DC0004C2D53D0462D5CD02B00099A0A994548EA
:100DD00007F026F90999200002F08CFE200002F0AD
:100DE000E1FD002858D145230493093303932D26B0
:100DF0006E4402962E276F4401972F256D4400956F
:100E00004B460A9A41462000FFF780FA00239A4693
:100E10002B7001333B7033700A9B099308A9334848
:100E20000AF0F0FA53460193009309AB45220AA950
:100E30002000FFF78DFA4623099A0A99284807F0FF
:100E4000EFF82B78002B53D0337853452CD0462520
:100E50004FE05225A3E709AB4E220AA92000FFF775
:100E60003DFB2D236B4401221A70A9E709AB4E22EA
:100E70000AA92000FFF740FB2E236B4401221A70C1
:100E8000A0E709AB4E220AA92000FFF743FB2F235E
:100E90006B4401221A7097E70A99200002F02AFE9B
:100EA0000D4807F08BF89EE70A9B099308A90E48A6
:100EB0000AF0A8FA53460193009309AB45220AA908
:100EC0002000FFF783FA5223099A0A99044807F091
:100ED000A7F852250DE0C04604C30010B8C20010A8
:100EE00074C20010BCC20010B4C2001070C2001066
:100EF00046252F236B441B78002B09D02D236B44F0
:100F00001B78002B04D02E236B441B78002B5AD067
:100F10002F236B441B78002B15D02D236B441B789B
:100F2000002B10D02E236B441B78002B0BD0522D9E
:100F300060D04C2D69D0462D72D02B00099A0A99A9
:100F4000E24807F06DF80999200002F0D3FD200077
:100F500002F028FD00286ED1452304930933039342
:100F60002D266E4402962E276F4401972F256D443F
:100F700000954B460A9A41462000FFF7C7F9002327
:100F80009A462B7001333B7033700A9B099308A972
:100F9000CF480AF037FA53460193009309AB452234
:100FA0000AA92000FFF7D4F94623099A0A99C948EB
:100FB00007F036F82B78002B5DD03378534542D0BC
:100FC00046239A4659E00A9B099308A9C2480AF0A9
:100FD00019FA00230193009309AB45220AA92000C6
:100FE000FFF738FA4C23099A0A99BA4807F018F81B
:100FF0004C258DE709AB45220AA92000FFF76EFAC0
:101000002D236B4401221A7093E709AB45220AA9EC
:101010002000FFF771FA2E236B4401221A708AE731
:1010200009AB45220AA92000FFF774FA2F236B446D
:1010300001221A7081E70A99200002F05BFDA7489F
:1010400006F0BCFF88E70A9B099308A9A4480AF0A8
:10105000D9F953460193009309AB45220AA9200010
:10106000FFF7B4F95223099A0A999A4806F0D8FF73
:1010700052239A4601E046239A462F236B441B785D
:10108000002B0AD02D236B441B78002B05D02E2378
:101090006B441B78002B00D100E12F236B441B789D
:1010A000002B1BD02D236B441B78002B16D02E2336
:1010B0006B441B78002B11D05346522B00D111E109
:1010C00053464C2B00D118E15346462B00D11FE16B
:1010D0005346099A0A997D4806F0A2FF0999200013
:1010E00002F008FD200002F05DFC002800D01AE1AB
:1010F00045230493093303932D256D4402952E2631
:101100006E4401962F276F4400974B460A9A41463A
:101110002000FFF7FBF801233B7033702B70534620
:10112000522B00D107E153464C2B00D10CE1534622
:10113000462B00D113E1D3465346099A0A996348D6
:1011400006F06EFF0999200002F0D4FC200002F0A6
:1011500029FC002800D00DE14523049309330393B3
:101160002D256D4402952E266E4401962F276F443F
:1011700000974B460A9A41462000FFF7C7F8012323
:101180003B7033702B705346522B00D1FAE053461C
:101190004C2B00D1FFE05346462B00D106E15B46C5
:1011A000099A0A99494806F03BFF0999200002F084
:1011B000A1FC200002F0F6FB002800D001E145234D
:1011C0000493093303932D256D4402952E266E4416
:1011D00001962F276F4400974B460A9A41462000FC
:1011E000FFF794F801233B7033702B705346522B5A
:1011F00000D1EEE053464C2B00D1F3E05346462B92
:1012000000D1FAE05B46099A0A99304806F008FFD7
:101210000999200002F06EFC200002F0C3FB0028B8
:1012200000D0F5E045230493093303932D266E4443
:1012300002962E276F4401972F256D4400954B464B
:101240000A9A41462000FFF761F801232B703B709A
:10125000002737700A9B099308A921480AF0D2F8A1
:101260000197009709AB45220AA92000FFF7AEF8C5
:101270005223099A0A99174806F0D2FE2B78002BC0
:1012800000D1E3E03378BB4200D13AE12E236B4436
:101290001B78BB4200D1C3E05225D8E00A9B0993DA
:1012A00008A90D480AF0AEF800230193009309AB9A
:1012B00045220AA92000FFF7CDF84C23099A0A9984
:1012C000044806F0ADFE4C239A46E6E6BCC2001088
:1012D00070C2001074C20010B8C2001004C3001025
:1012E000B4C2001009AB45220AA92000FFF7F6F8A6
:1012F0002D236B4401221A70E2E609AB45220AA9AC
:101300002000FFF7F9F82E236B4401221A70DBE668
:1013100009AB45220AA92000FFF7FCF82F236B44F4
:1013200001221A70D4E60A99200002F0E3FBDC489F
:1013300006F044FEDCE609AB45220AA92000FFF7CF
:10134000CDF801222A70EEE609AB45220AA9200059
:10135000FFF7D2F82E236B4401221A70E7E609AB9F
:1013600045220AA92000FFF7D5F82F236B4401225C
:101370001A70E0E60A99200002F0BCFBC84806F0AB
:101380001DFEE9E609AB45220AA92000FFF7A6F8F1
:1013900001222A70FBE609AB45220AA92000FFF7CB
:1013A000ABF82E236B4401221A70F4E609AB4522F8
:1013B0000AA92000FFF7AEF82F236B4401221A7010
:1013C000EDE60A99200002F095FBB54806F0F6FD1F
:1013D000F5E609AB45220AA92000FFF77FF80122B4
:1013E0002A7007E709AB45220AA92000FFF784F815
:1013F0002E236B4401221A7000E709AB45220AA98B
:101400002000FFF787F82F236B4401221A70F9E6BA
:101410000A99200002F06EFBA14806F0CFFD01E71B
:101420000A9B099308A99F4809F0ECFF01970097D0
:1014300009AB45220AA92000FFF70CF84C23099AB2
:101440000A99994806F0ECFD4C2500E052252F231F
:101450006B441B78002B15D02D236B441B78002B7D
:1014600010D02E236B441B78002B0BD0522D4AD06A
:101470004C2D53D0462D5CD02B00099A0A998B48ED
:1014800006F0CEFD0999200002F034FB200002F0A6
:1014900089FA002858D153230493053B03932D2642
:1014A0006E4402962E276F4401972F256D440095B8
:1014B0004B460A9A41462000FEF728FF00239A4631
:1014C0002B703B70013333700A9B099308A978484D
:1014D00009F098FF53460193009309AB53220AA9E0
:1014E0002000FEF735FF4623099A0A996E4806F058
:1014F00097FD2B78002B46D0337853452CD04625CA
:1015000042E05225A3E709AB45220AA92000FEF7D5
:10151000E5FF2D236B4401221A70A9E709AB452290
:101520000AA92000FEF7E8FF2E236B4401221A705F
:10153000A0E709AB45220AA92000FEF7EBFF2F2305
:101540006B4401221A7097E70A99200002F0D2FA40
:10155000534806F033FD9EE70A9B099308A95548B6
:1015600009F050FF53460193009309AB53220AA997
:101570002000FEF72BFF5223099A0A994A4806F0E9
:101580004FFD522500E046252F236B441B78002B8E
:1015900009D02D236B441B78002B04D02E236B44E1
:1015A0001B78002B5AD02F236B441B78002B16D0AE
:1015B0002D236B441B78002B11D02E236B441B78FA
:1015C000002B0CD0522D60D04C2D75D0462D00D163
:1015D0007DE02B00099A0A99344806F021FD09990B
:1015E000200002F087FA200002F0DCF9002879D10F
:1015F00053230493053B03932D266E4402962E2716
:101600006F4401972F256D4400954B460A9A414639
:101610002000FEF77BFE00239A462B7001333B70BF
:1016200033700A9B099308A9214809F0EBFE534641
:101630000193009309AB53220AA92000FEF788FE0C
:101640004623099A0A99184806F0EAFC2B78002BE1
:1016500067D0337853454DD0462563E00A9B099304
:1016600008A9104809F0CEFE00230193009309ABAE
:1016700053220AA92000FEF7EDFE4C23099A0A998D
:10168000094806F0CDFC4C258DE709AB53220AA989
:101690002000FEF723FF2D236B4401221A7093E7ED
:1016A00004C30010B8C2001074C20010BCC2001005
:1016B00070C20010B4C2001009AB53220AA9200066
:1016C000FEF71AFF2E236B4401221A707EE709AB46
:1016D00053220AA92000FEF71DFF2F236B4401228D
:1016E0001A7076E70A99200002F004FA9D4806F085
:1016F00065FC7DE70A9B099308A99B4809F082FED7
:1017000053460193009309AB53220AA92000FEF728
:101710005DFE5223099A0A99944806F081FC5225ED
:1017200000E046252F236B441B78002B0AD02D2385
:101730006B441B78002B05D02E236B441B78002BA9
:1017400000D1A0E02F236B441B78002B18D02D2351
:101750006B441B78002B13D02E236B441B78002B7B
:101760000ED0522D00D1A5E04C2D00D1ADE0462D7C
:1017700000D1B5E02B00099A0A997D4806F050FC8B
:101780000999200002F0B6F9200002F00BF90028B8
:1017900000D0B0E053230493053B03932D266E4401
:1017A00002962E276F4401972F256D4400954B46D6
:1017B0000A9A41462000FEF7A9FD01232B70002262
:1017C00092463A7033700A9B099308A9694809F058
:1017D00019FE53460193009309AB53220AA9200036
:1017E000FEF738FE4C23099A0A99604806F018FC67
:1017F0002B78002B06D03378534503D03B785345E4
:1018000000D080E00999200002F074F9200002F075
:10181000C9F8002800D085E04523049309330393D9
:101820002D266E4402962E276F4401972F256D4476
:1018300000954B460A9A41462000FEF767FD0023BB
:101840009A462B703B70013333700A9B099308A9A9
:10185000494809F0D7FD53460193009309AB45224F
:101860000AA92000FEF774FD4623099A0A993F4809
:1018700006F0D6FB2B78002B00D17FE03378534560
:1018800058D046257BE00A9B099308A9394809F0FE
:10189000B9FD00230193009309AB53220AA920004C
:1018A000FEF7D8FD4C23099A0A99304806F0B8FB98
:1018B0004C2547E709AB53220AA92000FEF70EFE8C
:1018C0002D236B4401221A704EE709AB53220AA95B
:1018D0002000FEF711FE2E236B4401221A7046E70A
:1018E00009AB53220AA92000FEF714FE2F236B44F4
:1018F00001221A703EE70A99200002F0FBF819480D
:1019000006F05CFB46E709AB53220AA92000FEF76C
:10191000F3FD01223A704C23099A0A99144806F003
:101920007FFB6FE70A99200002F0E4F80D4806F00B
:1019300045FB71E70A9B099308A90B4809F062FD72
:1019400053460193009309AB45220AA92000FEF7F4
:101950003DFD5223099A0A99044806F061FB52257D
:101960000DE0C04604C30010B4C2001074C20010E1
:10197000BCC20010B8C2001070C2001046252F2350
:101980006B441B78002B0AD02D236B441B78002B53
:1019900005D02E236B441B78002B00D106E12F23AA
:1019A0006B441B78002B18D02D236B441B78002B25
:1019B00013D02E236B441B78002B0ED0522D00D158
:1019C0000BE14C2D00D113E1462D00D11BE12B0082
:1019D000099A0A99E34806F023FB0999200002F0CE
:1019E00089F8200001F0DEFF002800D016E1452331
:1019F0000493093303932D266E4402962E276F44D9
:101A000001972F256D4400954B460A9A41462000C8
:101A1000FEF77CFC01239A462B7000239B463B700B
:101A2000534633700A9B099308A9CF4809F0EAFC92
:101A30005B4601935346009309AB45220AA9200057
:101A4000FEF708FD4C23099A0A99C84806F0E8FAFF
:101A50002B78002B06D033785B4503D03B785B4571
:101A600000D0E3E00999200002F044F8200001F0E2
:101A700099FF002800D0E8E04E23049303932D261D
:101A80006E4402962E276F4401972F256D440095D2
:101A90004B460A9A41462000FEF738FC00233B7073
:101AA00033702B78002B00D1D7E04C252F236B44CB
:101AB0001B78002B05D02D236B441B78002B00D105
:101AC000E2E02F236B441B78002B0AD02D236B44BC
:101AD0001B78002B05D02E236B441B78002B00D1E4
:101AE000E9E02F236B441B78002B18D02D236B4487
:101AF0001B78002B13D02E236B441B78002B0ED0A9
:101B0000522D00D1EEE04C2D00D1F6E0462D00D153
:101B1000FEE02B00099A0A99924806F081FA099989
:101B2000200001F0E7FF200001F03CFF002800D07A
:101B3000F9E045230493093303932D266E4402965E
:101B40002E276F4401972F256D4400954B460A9A26
:101B500041462000FEF7DAFB01232B703B70002783
:101B600037700A9B099308A9814809F04BFC01973B
:101B7000009709AB45220AA92000FEF727FC522353
:101B8000099A0A99794806F04BFA2B78002B00D174
:101B9000F4E03378BB4200D189E12E236B441B78FB
:101BA000BB4200D1C7E052239A46E9E00A9B099361
:101BB00008A96D4809F026FC00230193009309ABA6
:101BC00045220AA92000FEF745FC4C23099A0A99F0
:101BD000664806F025FA4C25E1E609AB45220AA93C
:101BE0002000FEF77BFC2D236B4401221A70E8E6EF
:101BF00009AB45220AA92000FEF77EFC2E236B4488
:101C000001221A70E0E609AB45220AA92000FEF77E
:101C100081FC2F236B4401221A70D8E60A99200018
:101C200001F068FF534806F0C9F9E0E609AB452228
:101C30000AA92000FEF760FC52463A704C23099A2C
:101C40000A99484806F0ECF90CE70A99200001F0DF
:101C500051FF484806F0B2F90EE70A9B099308A91C
:101C6000454809F0CFFB00230193009309AB4E22B6
:101C70000AA92000FEF76CFB4623099A0A993B4803
:101C800006F0CEF9462511E70A9B099308A93848C2
:101C900009F0B8FB00230193009309AB4E220AA977
:101CA0002000FEF793FB5223099A0A992F4806F069
:101CB000B7F9522505E70A9B099308A92A4809F0B4
:101CC000A1FB00230193009309AB4E220AA9200037
:101CD000FEF7C0FB4C23099A0A99244806F0A0F9A4
:101CE0004C25FEE609AB4E220AA92000FEF7F6FBC2
:101CF0002D236B4401221A7005E709AB4E220AA975
:101D00002000FEF7F9FB2E236B4401221A70FDE63A
:101D100009AB4E220AA92000FEF7FCFB2F236B44DF
:101D200001221A70F5E60A99200001F0E3FE11483D
:101D300006F044F9FDE60A9B099308A90A4809F050
:101D400061FB0197009709AB45220AA92000FEF725
:101D500081FB4C23099A0A99044806F061F94C2347
:101D60009A460DE0BCC20010B8C2001074C2001048
:101D7000B4C2001004C3001070C2001052239A466F
:101D80002F236B441B78002B1BD02D236B441B7817
:101D9000002B16D02E236B441B78002B11D05346FA
:101DA000522B00D186E053464C2B00D18DE0534698
:101DB000462B00D194E05346099A0A99BE4806F092
:101DC0002FF90999200001F095FE200001F0EAFDAD
:101DD000002800D08FE053230493053B03932D2567
:101DE0006D4402952E266E4401962F276F4400976E
:101DF0004B460A9A41462000FEF788FA01233B70C1
:101E000033702B705346522B7DD053464C2B00D150
:101E100082E05346462B00D189E05346099A0A993D
:101E2000A54806F0FDF80999200001F063FE2000A6
:101E300001F0B8FD002800D084E053230493053B53
:101E400003932D266E4402962E276F4401972F256B
:101E50006D4400954B460A9A41462000FEF756FA1B
:101E600001232B703B70002737700A9B099308A948
:101E7000924809F0C7FA0197009709AB53220AA9C3
:101E80002000FEF7A3FA5223099A0A998C4806F01B
:101E9000C7F82B78002B73D03378BB4200D1C9E050
:101EA0002E236B441B78BB4254D0522569E0522349
:101EB0009A4665E709AB45220AA92000FEF70EFB0A
:101EC0002D236B4401221A706DE709AB45220AA944
:101ED0002000FEF711FB2E236B4401221A7066E7E7
:101EE00009AB45220AA92000FEF714FB2F236B44FF
:101EF00001221A705FE70A99200001F0FBFD71488A
:101F000006F05CF867E709AB53220AA92000FEF748
:101F1000E5FA01222A7078E709AB53220AA92000CA
:101F2000FEF7EAFA2E236B4401221A7071E709AB1F
:101F300053220AA92000FEF7EDFA2F236B44012259
:101F40001A706AE70A99200001F0D4FD5D4806F096
:101F500035F872E70A9B099308A95B4809F052FA21
:101F60000197009709AB53220AA92000FEF772FAE5
:101F70004C23099A0A99524806F052F84C2500E081
:101F800052252F236B441B78002B15D02D236B4437
:101F90001B78002B10D02E236B441B78002B0BD00A
:101FA000522D49D04C2D52D0462D5BD02B00099A92
:101FB0000A99414806F034F80999200001F09AFD89
:101FC000200001F0EFFC002857D157230493093B70
:101FD00003932D266E4402962E276F4401972F25DA
:101FE0006D4400954B460A9A41462000FEF78EF953
:101FF000002398462B703B7033700A9B099308A905
:10200000324809F0FFF943460193009309AB572288
:102010000AA92000FEF79CF94623099A0A99284844
:1020200005F0FEFF2B78002B52D0337843452CD09F
:1020300046254EE05225A4E709AB53220AA9200009
:10204000FEF74CFA2D236B4401221A70AAE709AB64
:1020500053220AA92000FEF74FFA2E236B440122D7
:102060001A70A1E709AB53220AA92000FEF752FA21
:102070002F236B4401221A7098E70A99200001F07F
:1020800039FD104805F09AFF9FE70A9B099308A9BC
:102090000A4809F0B7F943460193009309AB572268
:1020A0000AA92000FEF792F95223099A0A990448D6
:1020B00005F0B6FF52250CE0BCC20010B4C20010FF
:1020C00074C2001004C30010B8C2001070C2001027
:1020D00046252F236B441B78002B09D02D236B44FE
:1020E0001B78002B04D02E236B441B78002B3ED092
:1020F0002F236B441B78002B15D02D236B441B78AA
:10210000002B10D02E236B441B78002B0BD0522DAC
:1021100044D04C2D4DD0462D56D02B00099A0A990B
:10212000334805F07DFF0999200001F0E3FC200011
:1021300001F038FC002852D12E4805F03FFF200066
:1021400001F018FC200001F019FD042204212000F8
:1021500001F0E0FA01F06EFC200000F053F80020DE
:102160000DB0F0BCBB46B246A946A046F0BD0A9BE6
:10217000099308A9204809F045F900230193009329
:1021800009AB57220AA92000FEF764F94C23099AEB
:102190000A991A4805F044FF4C25A9E709AB5722D4
:1021A0000AA92000FEF79AF92D236B4401221A7028
:1021B000AFE709AB57220AA92000FEF79DF92E23AD
:1021C0006B4401221A70A6E709AB57220AA9200026
:1021D000FEF7A0F92F236B4401221A709DE70A999C
:1021E000200001F087FC064805F0E8FEA4E7C046A1
:1021F000BCC2001014C30010B8C2001074C200109A
:1022000004C3001070B50400037A417A090219432F
:10221000827A12041143C37A1B060B4301D00025B6
:1022200011E005F035FDFAE7237A617A09021943D6
:10223000A27A12041143E37A1B060B43AA009858B2
:1022400005F026FD01352379617909021943A27948
:1022500012041143E3791B060B43AB42E4DC207A02
:10226000637A1B020343A27A12041343E07A000646
:10227000184305F00DFD70BDF8B5DE4657464E46D5
:102280004546E0B506000D00242005F0DDFC041EE7
:1022900000D1AFE22900714301710B0A43710B0CAD
:1022A00083710B0EC371042005F0E0FC2072030A59
:1022B0006372030CA372030EE372002801D00026A0
:1022C00007E02000FFF79EFFD54805F0A9FEF6E7DE
:1022D0000136227963791B021A43A179090411435B
:1022E000E3791B061943B14223DD257A627A120293
:1022F0002A43A37A1B041A43E57A2D061543B70037
:10230000ED19042005F0B2FC2860237A617A0902F5
:102310001943A27A12041143E37A1B060B43DB59DB
:10232000002BD5D12000FFF76DFFBE4805F078FEE9
:10233000CEE7042005F09AFC2073030A6373030CB4
:10234000A373030EE373002801D0002607E02000EA
:10235000FFF758FFB44805F063FEF6E7013622792F
:1023600063791B021A43A17909041143E3791B061F
:102370001943B14223DD257B627B12022A43A37BF2
:102380001B041A43E57B2D061543B700ED19042005
:1023900005F06CFC2860237B617B09021943A27B5A
:1023A00012041143E37B1B060B43DB59002BD5D1F1
:1023B0002000FFF727FF9D4805F032FECEE70420FE
:1023C00005F054FC2074030A6374030CA374030E19
:1023D000E374002801D0002607E02000FFF712FF79
:1023E000934805F01DFEF6E70136227963791B025A
:1023F0001A43A17909041143E3791B061943B14239
:1024000023DD257C627C12022A43A37C1B041A4331
:10241000E57C2D061543B700ED19042005F026FCD8
:102420002860237C617C09021943A27C12041143B9
:10243000E37C1B060B43DB59002BD5D12000FFF7B3
:10244000E1FE7C4805F0ECFDCEE7042005F00EFC33
:102450002075030A6375030CA375030EE37500284A
:1024600001D0002607E02000FFF7CCFE724805F0FF
:10247000D7FDF6E70136227963791B021A43A17969
:1024800009041143E3791B061943B14223DD257D7D
:10249000627D12022A43A37D1B041A43E57D2D06AB
:1024A0001543B700ED19042005F0E0FB2860237DFB
:1024B000617D09021943A27D12041143E37D1B06CD
:1024C0000B43DB59002BD5D12000FFF79BFE5B4867
:1024D00005F0A6FDCEE7042005F0C8FB2076030A30
:1024E0006376030CA376030EE376002801D0002662
:1024F00007E02000FFF786FE514805F091FDF6E762
:102500000136227963791B021A43A1790904114328
:10251000E3791B061943B14223DD257E627E120258
:102520002A43A37E1B041A43E57E2D061543B700FC
:10253000ED19042005F09AFB2860237E617E0902D4
:102540001943A27E12041143E37E1B060B43DB59A1
:10255000002BD5D12000FFF755FE3A4805F060FD6D
:10256000CEE7042005F082FB2077030A6377030C93
:10257000A377030EE377002801D0002607E02000B0
:10258000FFF740FE304805F04BFDF6E701362279B3
:1025900063791B021A43A17909041143E3791B06ED
:1025A0001943B14223DD257F627F12022A43A37FB4
:1025B0001B041A43E57F2D061543B700ED190420CF
:1025C00005F054FB2860237F617F09021943A27F35
:1025D00012041143E37F1B060B43DB59002BD5D1BB
:1025E0002000FFF70FFE194805F01AFDCEE7042082
:1025F00005F03CFB2023E054020A0133E254020CB4
:102600000133E254020E0133E254002801D00026C7
:1026100021E02000FFF7F6FD0D4805F001FDF6E78B
:1026200018C300103CC3001060C3001084C3001026
:10263000A8C30010CCC30010F0C3001020C40010C9
:1026400050C4001080C40010B0C40010E0C40010DA
:1026500010C500100136227963791B021A43A17953
:1026600009041143E3791B061943B1422FDD2023EE
:102670009B46E55C01339A46E25C12022A43013331
:102680009946E35C1B041A4323239846E55C2D0618
:102690001543B700ED19042005F0E8FA28605B4601
:1026A000E35C5246A15C090219434B46E25C12040A
:1026B00011434346E35C1B060B43DB59002BC9D196
:1026C0002000FFF79FFD4F4805F0AAFCC2E7042059
:1026D00005F0CCFA2070030A6370030CA370000E9F
:1026E000E07000266AE0217A657A2D020D43A07A17
:1026F00000040543E17A090629438958C9180027CF
:102700000F70217B657B2D020D43A07B00040543E8
:10271000E17B090629438958C9180F70217C657C23
:102720002D020D43A07C00040543E17C09062943EA
:102730008958C9180F70217D657D2D020D43A07D3C
:1027400000040543E17D0906294389584E37CF54DB
:10275000217E657E2D020D43A07E00040543E17EAF
:10276000090629438958CF54217F657F2D020D43E7
:10277000A07F00040543E17F090629438958CF540F
:102780002021615C2120255C2D020D432221605C0B
:10279000000405430131615C090629438958CF547F
:1027A0000133217965792D020D43A0790004054399
:1027B000E17909062943994295DC0136237961794B
:1027C00009021943A27912041143E3791B060B4352
:1027D000B3420FDD2378617809021943A27812040D
:1027E0001143E3781B060B43B20063214942995021
:1027F0000023D6E72000F0BCBB46B246A946A0465F
:10280000F8BDC04640C5001070B50400334805F05F
:10281000D5FB334805F004FC002504E029003148CD
:1028200005F0FEFB01352379617909021943A2798C
:1028300012041143E3791B060B43AB4207DD013B56
:10284000AB42EBD02900284805F0EAFBEAE7002676
:1028500031E0237A617A09021943A27A1204114302
:10286000E37A1B060B43B200D358595D1E4805F0AE
:10287000D7FB01352379617909021943A279120442
:102880001143E3791B060B43AB4213DD013BAB4223
:10289000DFD1237A617A09021943A27A1204114323
:1028A000E37A1B060B43B200D358595D0D4805F07F
:1028B000B7FBDEE701362379617909021943A27972
:1028C00012041143E3791B060B43B34205DD3100CB
:1028D000054805F0A5FB0025CCE770BD70C50010CC
:1028E00080C5001084C500108CC5001070B50400B0
:1028F000334805F063FB334805F092FB002504E004
:102900002900314805F08CFB0135237961790902F2
:102910001943A27912041143E3791B060B43AB421E
:1029200007DD013BAB42EBD02900284805F078FBDE
:10293000EAE7002631E0237D617D09021943A27D8B
:1029400012041143E37D1B060B43B200D358595DBB
:102950001F4805F065FB01352379617909021943A8
:10296000A27912041143E3791B060B43AB4213DD3A
:10297000013BAB42DFD1237D617D09021943A27D7A
:1029800012041143E37D1B060B43B200D358595D7B
:10299000104805F045FBDEE701362379617909022D
:1029A0001943A27912041143E3791B060B43B34286
:1029B00005DD3100054805F033FB0025CCE770BD8F
:1029C00094C5001080C5001084C500108CC500108F
:1029D000B8C50010B0C5001070B50400334805F04C
:1029E000EDFA334805F01CFB002504E029003148CE
:1029F00005F016FB01352379617909021943A279A3
:102A000012041143E3791B060B43AB4207DD013B84
:102A1000AB42EBD02900284805F002FBEAE700268C
:102A200031E0237E617E09021943A27E1204114324
:102A3000E37E1B060B43B200D358595D1F4805F0D7
:102A4000EFFA01352379617909021943A279120459
:102A50001143E3791B060B43AB4213DD013BAB4251
:102A6000DFD1237E617E09021943A27E1204114345
:102A7000E37E1B060B43B200D358595D104805F0A6
:102A8000CFFADEE701362379617909021943A27989
:102A900012041143E3791B060B43B34205DD3100F9
:102AA000054805F0BDFA0025CCE770BDC0C5001093
:102AB00080C5001084C500108CC50010B8C500107A
:102AC000B0C5001070B50400334805F077FA3348FC
:102AD00005F0A6FA002504E02900314805F0A0FA27
:102AE00001352379617909021943A279120411434E
:102AF000E3791B060B43AB4207DD013BAB42EBD056
:102B00002900284805F08CFAEAE7002631E0237F07
:102B1000617F09021943A27F12041143E37F1B0660
:102B20000B43B200D358595D1F4805F079FA0135BF
:102B30002379617909021943A27912041143E379D7
:102B40001B060B43AB4213DD013BAB42DFD1237FBE
:102B5000617F09021943A27F12041143E37F1B0620
:102B60000B43B200D358595D104805F059FADEE71F
:102B700001362379617909021943A27912041143BC
:102B8000E3791B060B43B34205DD3100054805F030
:102B900047FA0025CCE770BDDCC5001080C50010E9
:102BA00084C500108CC50010B8C50010B0C5001059
:102BB00070B50400374805F001FA374805F030FADF
:102BC000002504E02900354805F02AFA013523796B
:102BD000617909021943A27912041143E3791B06B2
:102BE0000B43AB4207DD013BAB42EBD029002C4845
:102BF00005F016FAEAE7002639E02023E35C2122FB
:102C0000A15C090219432223E25C1204114301333F
:102C1000E35C1B060B43B200D358595D214805F015
:102C2000FFF901352379617909021943A279120468
:102C30001143E3791B060B43AB4217DD013BAB426B
:102C4000DBD12023E35C2122A15C0902194322236A
:102C5000E25C120411430133E35C1B060B43B20038
:102C6000D358595D104805F0DBF9DAE701362379CE
:102C7000617909021943A27912041143E3791B0611
:102C80000B43B34205DD3100054805F0C9F90025C5
:102C9000C8E770BDF8C5001080C5001084C50010DD
:102CA0008CC50010B8C50010B0C5001070B5040088
:102CB000334805F083F9334805F0B2F9002504E004
:102CC0002900314805F0ACF9013523796179090211
:102CD0001943A27912041143E3791B060B43AB425B
:102CE00007DD013BAB42EBD02900284805F098F9FD
:102CF000EAE7002631E0237B617B09021943A27BCE
:102D000012041143E37B1B060B43B200D358595DF9
:102D10001E4805F085F901352379617909021943C7
:102D2000A27912041143E3791B060B43AB4213DD76
:102D3000013BAB42DFD1237B617B09021943A27BBC
:102D400012041143E37B1B060B43B200D358595DB9
:102D50000D4805F065F9DEE701362379617909024E
:102D60001943A27912041143E3791B060B43B342C2
:102D700005DD3100054805F053F90025CCE770BDAD
:102D800014C6001080C5001084C500108CC500104A
:102D900070B50400334805F011F9334805F040F9E7
:102DA000002504E02900314805F03AF9013523797E
:102DB000617909021943A27912041143E3791B06D0
:102DC0000B43AB4207DD013BAB42EBD02900284867
:102DD00005F026F9EAE7002631E0237C617C090250
:102DE0001943A27C12041143E37C1B060B43B2007F
:102DF000D358595D1E4805F013F9013523796179DF
:102E000009021943A27912041143E3791B060B430B
:102E1000AB4213DD013BAB42DFD1237C617C090275
:102E20001943A27C12041143E37C1B060B43B2003E
:102E3000D358595D0D4805F0F3F8DEE701362379E4
:102E4000617909021943A27912041143E3791B063F
:102E50000B43B34205DD3100054805F0E1F80025DC
:102E6000CCE770BD24C6001080C5001084C50010DA
:102E70008CC5001030B5037D447D24021C43857D44
:102E80002D042C43C37D1B0623438900CB58985C3B
:102E900030BDF8B504000E0015001F00FFF7EAFF73
:102EA0004E2801D00020F8BD237D617D0902194321
:102EB000A27D12041143E37D1B060B43B200D358DD
:102EC0005F55462F14D0422F22D04C2F2FD0522F97
:102ED0001CD1237D617D09021943A27D1204114397
:102EE000E37D1B060B43AD00EB584C229A550DE0D9
:102EF000237D617D09021943A27D12041143E37D04
:102F00001B060B43AD00EB5842229A550120CAE73D
:102F1000237D617D09021943A27D12041143E37DE3
:102F20001B060B43AD00EB5846229A55EEE7237D76
:102F3000617D09021943A27D12041143E37D1B0642
:102F40000B43AD00EB5852229A55DFE730B5037EB4
:102F5000447E24021C43857E2D042C43C37E1B0625
:102F600023438900CB58985C30BDF8B504000E00AF
:102F700015001F00FFF7EAFF4E2801D00020F8BD22
:102F8000237E617E09021943A27E12041143E37E6F
:102F90001B060B43B200D3585F55462F14D0422F67
:102FA00022D04C2F2FD0522F1CD1237E617E0902BC
:102FB0001943A27E12041143E37E1B060B43AD00AE
:102FC000EB584C229A550DE0237E617E090219438D
:102FD000A27E12041143E37E1B060B43AD00EB58A7
:102FE00042229A550120CAE7237E617E09021943D5
:102FF000A27E12041143E37E1B060B43AD00EB5887
:1030000046229A55EEE7237E617E09021943A27E8D
:1030100012041143E37E1B060B43AD00EB58522212
:103020009A55DFE730B5037F447F24021C43857F38
:103030002D042C43C37F1B0623438900CB58985C87
:1030400030BDF8B504000E0015001F00FFF7EAFFC1
:103050004E2801D00020F8BD237F617F090219436B
:10306000A27F12041143E37F1B060B43B200D35827
:103070005F55462F14D0422F22D04C2F2FD0522FE5
:103080001CD1237F617F09021943A27F12041143DF
:10309000E37F1B060B43AD00EB584C229A550DE025
:1030A000237F617F09021943A27F12041143E37F4A
:1030B0001B060B43AD00EB5842229A550120CAE78C
:1030C000237F617F09021943A27F12041143E37F2A
:1030D0001B060B43AD00EB5846229A55EEE7237FC3
:1030E000617F09021943A27F12041143E37F1B068B
:1030F0000B43AD00EB5852229A55DFE730B5202341
:10310000C35C2124045D24021C432223C55C2D04DE
:103110002C430133C35C1B0623438900CB58985CC6
:1031200030BDF8B504000E0015001F00FFF7E6FFE4
:103130004E2801D00020F8BD2023E35C2122A15CB1
:10314000090219432223E25C120411430133E35CB8
:103150001B060B43B200D3585F55462F18D0422FA1
:103160002AD04C2F3BD0522F24D12023E35C2122A4
:10317000A15C090219432223E25C120411430133CA
:10318000E35C1B060B43AD00EB584C229A5511E053
:103190002023E35C2122A15C090219432223E25C83
:1031A000120411430133E35C1B060B43AD00EB58E3
:1031B00042229A550120BEE72023E35C2122A15C34
:1031C000090219432223E25C120411430133E35C38
:1031D0001B060B43AD00EB5846229A55EAE7202325
:1031E000E35C2122A15C090219432223E25C120460
:1031F00011430133E35C1B060B43AD00EB58522235
:103200009A55D7E7F0B5C64600B504000D00160084
:103210001F0006AB1B789846FFF72CFE4E2816D0F1
:10322000320029002000FFF791FE4E280FD0320017
:1032300029002000FFF7F6FE4E2808D032002900B2
:103240002000FFF75BFF4E2801D000200CE0434632
:103250004E2B0CD0532B00D175E0572B00D1DFE063
:10326000452B00D149E1012080BCB846F0BD462F76
:103270001ED0422F35D04C2F4CD0522FF3D13B00D3
:10328000320029002000FFF704FE4C233200290001
:103290002000FFF76AFE4223320029002000FFF7DA
:1032A000D0FE4623320029002000FFF73AFFDAE77C
:1032B0003B00320029002000FFF7EBFD42233200E3
:1032C00029002000FFF751FE522332002900200080
:1032D000FFF7B7FE4C23320029002000FFF721FF43
:1032E000C1E73B00320029002000FFF7D2FD462352
:1032F000320029002000FFF738FE4C23320029005D
:103300002000FFF79EFE5223320029002000FFF725
:1033100008FFA8E73B00320029002000FFF7B9FDB5
:103320005223320029002000FFF71FFE46233200FF
:1033300029002000FFF785FE4223320029002000EB
:10334000FFF7EFFE8FE7462F1FD0422F36D04C2FCE
:103350004DD0522F00D086E73B00320029002000DC
:10336000FFF703FE4C23320029002000FFF791FDF8
:103370004623320029002000FFF763FE422332007B
:1033800029002000FFF7CDFE6DE73B003200290049
:103390002000FFF7EAFD4223320029002000FFF75A
:1033A00078FD4C23320029002000FFF74AFE52230B
:1033B000320029002000FFF7B4FE54E73B00320042
:1033C00029002000FFF7D1FD46233200290020000C
:1033D000FFF75FFD5223320029002000FFF731FE86
:1033E0004C23320029002000FFF79BFE3BE73B0007
:1033F000320029002000FFF7B8FD522332002900D7
:103400002000FFF746FD4223320029002000FFF78D
:1034100018FE4623320029002000FFF782FE22E733
:10342000462F1FD0422F36D04C2F4DD0522F00D0D8
:1034300019E73B00320029002000FFF702FE462377
:10344000320029002000FFF724FD4223320029002A
:103450002000FFF78AFD4C23320029002000FFF7EF
:1034600060FE00E73B00320029002000FFF7E9FD85
:103470004C23320029002000FFF70BFD52233200BD
:1034800029002000FFF771FD4223320029002000AF
:10349000FFF747FEE7E63B00320029002000FFF778
:1034A000D0FD5223320029002000FFF7F2FC4C230C
:1034B000320029002000FFF758FD46233200290082
:1034C0002000FFF72EFECEE63B0032002900200050
:1034D000FFF7B7FD4223320029002000FFF7D9FC97
:1034E0004623320029002000FFF73FFD522332001F
:1034F00029002000FFF715FEB5E6462F1FD0422F0A
:1035000036D04C2F4DD0522F00D0ACE63B003200CD
:1035100029002000FFF705FE422332002900200089
:10352000FFF7B7FC4623320029002000FFF71DFDFE
:103530004C23320029002000FFF783FD93E63B0077
:10354000320029002000FFF7ECFD52233200290051
:103550002000FFF79EFC4C23320029002000FFF7DB
:1035600004FD4223320029002000FFF76AFD7AE6BD
:103570003B00320029002000FFF7D3FD4C2332002E
:1035800029002000FFF785FC52233200290020008B
:10359000FFF7EBFC4623320029002000FFF751FD26
:1035A00061E63B00320029002000FFF7BAFD462308
:1035B000320029002000FFF76CFC42233200290072
:1035C0002000FFF7D2FC5223320029002000FFF731
:1035D00038FD48E630B5037A447A24021C43857AE4
:1035E0002D042C43C37A1B0623438900CB58985CD7
:1035F00030BD70B504000E001500FFF7EBFF00288A
:103600001BD1237A617A09021943A27A1204114369
:10361000E37A1B060B43B200D35801305855237A86
:10362000617A09021943A27A12041143E37A1B0654
:103630000B43AD00EB58985570BD0020FCE730B54A
:10364000037B447B24021C43857B2D042C43C37BDA
:103650001B0623438900CB58985C30BD70B504002D
:103660000E001500FFF7EBFF00281BD1237B617BC9
:1036700009021943A27B12041143E37B1B060B438F
:10368000B200D35801305855237B617B090219439E
:10369000A27B12041143E37B1B060B43AD00EB58E6
:1036A000985570BD0020FCE730B5037C447C2402B3
:1036B0001C43857C2D042C43C37C1B0623438900BB
:1036C000CB58985C30BD70B504000E001500FFF7B4
:1036D000EBFF00281BD1237C617C09021943A27CEB
:1036E00012041143E37C1B060B43B200D358013094
:1036F0005855237C617C09021943A27C12041143B2
:10370000E37C1B060B43AD00EB58985570BD0020C1
:10371000FCE70000F0B5DE4657464E464546E0B5AC
:1037200087B000AF7861396015003A61531EFB60C5
:103730009600BE600A004B1E7B602B004B439B0033
:103740000733DB08DB006946CB1A9D466C46002038
:103750000021944609E0B30843439B189B0019518C
:1037600001320131AA42F6DB0130604501DA002264
:10377000F8E70A2004F0CAFB00239A46E4E0BB689D
:103780009B08994656465E4373199B009846195903
:10379000744804F045FC6B1C9B465E44B6003259ED
:1037A000434619597869FFF715FF002807D10A2009
:1037B00004F0ACFB0026AB465546A04647E02D2062
:1037C00004F0A4FB42461259904636593200414655
:1037D0007869FFF734FF00280DD13200414678693F
:1037E000FFF762FF00280AD0682004F08FFB2D202D
:1037F00004F08CFBDBE7622004F088FBF7E72D2068
:1038000004F084FBF3E77C2004F080FB4B466B4321
:103810009B199B0042469B589A464B465C43A41911
:10382000A400A458220051467869FFF73DFF002804
:1038300029D1220051467869FFF701FF002826D0E0
:10384000622004F063FB484804F0EAFB01363B6960
:103850009E4220DA6C1C4B4663439B199B004246F8
:103860009A584B466B439B199B00414659587869BF
:10387000FFF7B0FE0028C6D17B68AB42E6D03B48DC
:1038800004F0CEFBE2E7682004F040FBDBE77C209D
:1038900004F03CFBD7E7AA465D4644460A2004F004
:1038A00035FB09E0622004F031FB02E02D2004F03A
:1038B0002DFB2D2004F02AFB01353B699D4240DAA7
:1038C000FB68AB4200D15AE7BB689B089846564656
:1038D0005E4373199B0099461959224804F0A0FBD6
:1038E0006B1C9B465E44B60032594B4619597B69A6
:1038F00099461800FFF76EFE00281ED02D2004F018
:1039000005FB4346524653435A19920016595B44ED
:103910009B001B5998461A0031004846FFF78FFE5E
:103920000028BFD1424631007869FFF7BDFE00286C
:10393000BCD0682004F0EAFABBE70D4804F070FB45
:10394000BAE701239C46E2443B689A4501DA002528
:10395000B3E7BD4607B0F0BCBB46B246A946A04699
:10396000F0BDC04634C600103CC6001044C600106E
:1039700050C6001010B50400FEF746FF2000FFF708
:1039800007FA2000FFF792F92000FEF7AFFF2000B2
:10399000FFF722F82000FFF795F82000FFF708F95D
:1039A00010BD0000F0B5C64600B504000026002397
:1039B0009C461DE06B1E834213D00130854216DD0C
:1039C000237A617A09021943A27A12041143E37A35
:1039D0001B060B43B200D3581B5C002BEAD0013707
:1039E000E8E7002FE9D001239846C444E5E7013613
:1039F000227963791B021A43A5792D041543E379D3
:103A00001B061D43B54202DD00200027D6E76545B1
:103A100006D0064804F0D2FA002080BCB846F0BDBB
:103A2000034804F0CBFA0120F7E7C04674C6001043
:103A300054C6001010B52421014804F0F1FA10BD5D
:103A400094C600104E2B0FD0532B1DD0452B2BD0DE
:103A5000572B48D1462A37D0422A37D0522A37D05E
:103A60004C2A43D1401808E0462A07D0422A07D002
:103A7000522A07D04C2A2DD101387047401AFCE752
:103A80004018FAE70130F8E7462A07D0422A07D063
:103A9000522A07D04C2A20D10130EEE74018ECE73B
:103AA000401AEAE70138E8E7462A07D0422A07D059
:103AB000522A07D04C2A13D1401ADEE70130DCE746
:103AC0000138DAE74018D8E70138D6E70130D4E703
:103AD000401AD2E763204042CFE763204042CCE760
:103AE00063204042C9E763204042C6E7632040426A
:103AF000C3E70000F8B504000F000026002102E033
:103B0000BB421ED001362379607900021843A279A6
:103B100012041043E3791B060343B34216DD2378F6
:103B2000607800021843A27812041043E3781B0661
:103B30000343B200D3581A006332E1D135000121AA
:103B4000DEE70C4804F03AFA0021DBE7002900D157
:103B5000F8BD2378617809021943A2781204114351
:103B6000E3781B060B43AD005F51034804F026FACF
:103B7000EEE7C046ACC60010B4C6001070B5040035
:103B8000124804F04DFA00250FE02378617809020D
:103B90001943A27812041143E3781B060B43AA00D1
:103BA00099580B4804F03CFA0135237961790902F0
:103BB0001943A27912041143E3791B060B43AB426C
:103BC000E3DC0A2004F0A2F970BDC046CCC60010A8
:103BD000DCC6001010B58300084A944663441C6894
:103BE00040226240C02414408022520113431C60D2
:103BF000C000034B9C466044416010BD04C00140BE
:103C00000040014010B501238340D0221206936288
:103C100093610521FFF7DEFF10BD0000EFF3108078
:103C200072B6034B1B68002BFBD0BFF35F8F70474E
:103C30002C0100D0BFF35F8F024B00221A6080F38B
:103C4000108870472C0100D0F8B506000C00150054
:103C5000FFF7E4FFE308F718F15C07222240012395
:103C600093400B4205D1DBB20B433B70FFF7E2FF01
:103C7000F8BD2100280001F0B5FDF0B583B00600C5
:103C8000019114001F00FFF7C9FF00E00134BC429E
:103C90000CD8E308F518F35C0721214001228A4083
:103CA0001A42F3D1D2B21A432A7001E001246442CD
:103CB000FFF7C0FF002C02DB200003B0F0BD019B2A
:103CC000002BF9D0089801F08DFD0000034B1B6814
:103CD00002201840431E9841C0B2704700C0064001
:103CE000002307E0054A9A189200BFF35F8F002176
:103CF000116001331F2BF5D97047C04640000034D6
:103D0000054A1078431CDBB21370172B02D913003D
:103D100010221A707047C0462004002000B583B0FE
:103D20000100044B00931F2318220348FFF7A5FF4F
:103D300003B000BDE0C6001028140020074B9B68AC
:103D4000103080001950BFF35F8FBFF35F8F044BBB
:103D50000021196082F310887047C04600ED00E032
:103D6000240100D010B5091A081F0A4B9C46614473
:103D7000094A914208D8C30706D440104005400DB7
:103D8000064B184380B210BD054B064A99210648E0
:103D900001F08EFCFC070000FE0F000000E0FFFFBA
:103DA000FCC6001064C900102CC7001010B5091A19
:103DB00004394C08090B08D14905490D064A11433D
:103DC0000180064B2343438010BD054B054AA121CA
:103DD000054801F06DFCC04600F0FFFF00F8FFFF52
:103DE00074C7001038C900102CC70010012383408D
:103DF000034A10681840431E9841C0B27047C0463D
:103E000000E100E0002904D0034B1860034B186068
:103E10007047034B1860FBE780E200E000E100E040
:103E200080E100E010B5012383401800FFF7EAFFAE
:103E300010BD000001238340014A13607047C04653
:103E400000E200E0024B9B6810308000C0587047D1
:103E500000ED00E010B5FFF7F5FF002805D0054B99
:103E6000C01A2F2803D8012010BD0020FCE7002035
:103E7000FAE7C0462404002070B504000D00EFF3FB
:103E8000108672B60C4B1B68002BFBD0BFF35F8F04
:103E90002000FFF7D7FF094B984201D0A84205D177
:103EA000320029002000FFF749FF70BD044B054A8E
:103EB0007C21054801F0FCFB240100D0CD0100105D
:103EC00084C7001098C900102CC70010F0B5DE465A
:103ED00057464E464546E0B589B0814601911500EA
:103EE000EFF3108A72B6744B1B68002BFBD0BFF344
:103EF0005F8F724B0027DF57002F40DB7C00E419F7
:103F0000A4006F4824180622A2566C4B1A706D4B01
:103F10009A684B4610339B00D35898461E001B1AD4
:103F20002F2B38D9684B98452FD105AE674B33807E
:103F30007B009B46D8198000614B98464044023074
:103F40006349FFF70FFF7080624BB380FF23B371AB
:103F5000F571019B07935F44BF0047440ECE0EC727
:103F600001231C43A046524641464846FFF7E6FE61
:103F700009B0F0BCBB46B246A946A046F0BD564BC0
:103F8000564ACD21564801F093FB564B534AD42153
:103F9000534801F08DFBC04340440C2102F05EFF0A
:103FA000002912D101239E43B34633000026DA795B
:103FB000AA4211D90621595600290CDB4A00521891
:103FC00092001E003E4B9B18F1E7474B434AE0210D
:103FD000434801F06DFB1E00002E3BD005AB434A69
:103FE0001A80813A5A800623F3560293002B18DA7E
:103FF000BD20000205AB9B469880029A9A71DD7144
:10400000019A0792301D2100FFF7ACFEB080B77116
:104010007B00DB199B002A4FFF185B4607CB07C7C5
:10402000A1E77800C0198000254BC0180430321D6C
:10403000B388D90A1C2907D15B05591502314900FB
:104040005118FFF78FFED5E7294B2A4AA7212448AC
:1040500001F02EFB05AE1D4B33807B000293D81977
:104060008000174A9046020042440392901C18496F
:10407000FFF778FE7080039A101D5946FFF772FE15
:10408000B0801D4B5A464146521A524153431B0DB4
:10409000B371F571019A0792029B9C466744BF0079
:1040A00047440ECE0EC7114B5A461380813B5380B6
:1040B00001231C43A04656E7240100D0261B002004
:1040C0002404002000ED00E0CD01001000A1FFFF5E
:1040D0005404002000BDFFFFBCC7001080C90010C1
:1040E0002CC70010E4C700100CC8001001480000E5
:1040F00080C8001070C90010AAAA0000F0B5CE4612
:10410000474680B583B006000D00EFF3108872B605
:10411000564B1B68002BFBD0BFF35F8F544B9A6844
:1041200034001034A300D758524B9F4207D0AF42FF
:1041300000D199E00197504BFB1A2F2B09D9424629
:1041400039003000FFF7FAFD03B0C0BCB946B046F5
:10415000F0BD3000FFF74AFE814600213000FFF736
:1041600061FEBFF35F8FFCF77EF8002801D0844228
:1041700011D10123019C9C430022A368AB4212D0C1
:104180000622A256002A0DDB53009B189B0022003A
:10419000394CE418F1E72C21384B394AFF313948C2
:1041A00001F086FA2200AB4257D106256557002D53
:1041B00039DB6B005B199A002F4B9B189A68A26041
:1041C000DA79E27106229A56A2719B795BB2002BD2
:1041D00010DABD200002A0806B005B199B00264A0C
:1041E000D318294A11789971157049463000FFF7A4
:1041F00019FEA4E7201D6B005B199B001E4A9B184B
:104200001A1D9B88D90A1C2907D15B055B1502334F
:1042100059005118FFF7A6FDDDE71C4B1C4AA721EA
:10422000184801F045FA002812D1002A0ED0FF23C9
:104230009371184B9380144A1378A371164B0E494F
:10424000641A644163431B0D1370CEE7094FF2E714
:10425000201D1249FFF7AAFDC7E76021104B084A4D
:10426000FF31084801F024FA024F68E7240100D02A
:1042700000ED00E0CD0100102404002098C80010DB
:1042800050C900102CC70010261B002080C8001049
:1042900070C9001000BDFFFFAAAA00005E04002044
:1042A000BCC8001070B50400012606432D4BF31A5C
:1042B0002F2B28D8FBF7D7FF00282BD0EFF3108C3B
:1042C00072B6294B1B68002BFBD0BFF35F8F274DC5
:1042D00022002449521A524155432D0D6DB2244BF0
:1042E0009B6880001B58B3421BD00022032A32D89F
:1042F00053009B189B001B49CB189B795BB2AB42C8
:104300001FD00132F2E7C2211A4B1B4A49001B4859
:1043100001F0CEF988211A4B174AFF31174801F0F6
:10432000C7F9134B9B68174A1A50174B1A78A2719A
:104330001D70BFF35F8F0C4B00221A608CF3108846
:1043400070BD08005300991889004118FF268E712E
:104350000E4A8A80E9E7CC210D4B074A49000748FD
:1043600001F0A6F924040020240100D0AAAA00002C
:1043700000ED00E0C4C800101CC900102CC70010DC
:10438000ECC80010CD010010261B002000BDFFFF6F
:10439000F8C800100022044B02E0044902C30132B5
:1043A000072AFAD97047C04600E400E08080808088
:1043B00000B583B00100D0231B061B680648C01857
:1043C000064B009305230022FFF757FC002801DB72
:1043D0001F23181A03B000BD201B002000C90010C5
:1043E000024B9C46614489000160704740000034E4
:1043F00070B505000C00080000F0CCFD200000F0B6
:10440000D5FE0849200000F015FEFFF779FC064BA9
:104410009C466044800068602C75A400034BE55006
:1044200070BDC0463547001040000034D41800204D
:104430000A4B1A68EFF3108172B61368002BFCD098
:10444000BFF35F8F054B1B68BFF35F8F00221A60BD
:1044500081F3108840BF002000217047F01A00202F
:1044600010B5002922D003681B7B99421ED8174B38
:104470009C466144090183689C4661440C68496814
:10448000002A19D003681B7B9A4215D883680F480D
:104490008446624412019A18106853680200012091
:1044A0008B4201D80ED00020C0B210BD084B094A83
:1044B0003B21094801F0FCF8054B064A3B21064820
:1044C00001F0F6F8A242EFD8EDE7C046FFFFFF0F7C
:1044D0000CCA0010E0CC0010C8C9001010B50029AB
:1044E0001ED0037B99421BD84B005B18033B04682A
:1044F000A4466344002919D0002A1DD0914221D03E
:10450000002A25D0047BA24222D8046850008018DB
:10451000033820188170197800291FD11A7010BD36
:10452000104B114A6821114801F0C2F8104B114A92
:104530006F310E4801F0BCF80F4B0E4A70210B484A
:1045400001F0B6F80D4B0B4A7121084801F0B0F8A4
:10455000044B054A6821054801F0AAF841701A7019
:10456000DDE7C04640CA00104CCD00105CCA001008
:10457000B0CA001028CD0010BCCA0010C8CA001074
:1045800070B506000D001400002914D0002A14D0C4
:10459000806873689847002806D022002900300000
:1045A000FFF79CFF280007E02A0021003000FFF7FA
:1045B00095FF200000E0100070BD0800FCE700003F
:1045C000F0B583B00500009201930AAB1C780BABE9
:1045D0001F78002C26D003685A7B944207D1012310
:1045E000002B19D1002C3BD1200003B0F0BD002CD2
:1045F0000CD01A7B944209D81A6863001B19033B3C
:10460000D3189B78002BEBD00123E9E73E4B3F4AC0
:1046100068213F4801F04CF83E4B3F4A65213F4836
:1046200001F046F803689C7B002CDBD012D01A7B8B
:1046300094420FD862001219033A19688C466244FA
:1046400051789973002900D1D97300239370537066
:104650001370C7E72C4B2D4A68212D4801F028F82C
:10466000002C3AD02B681B7B9C4236D82C4BE3188D
:104670001B01AA6894466344009A1A60019A5A6022
:10468000089A9A60099ADA602E68002C2BD030D0F4
:10469000337B9C422DD863001B19033B3268944640
:1046A000634400229A705A701A70717B22003000A5
:1046B000FFF766FF7073844200D095E7287D009A6B
:1046C000019B00F0FFFC061E01D0002F17D00C9BB1
:1046D000002B00D188E71E7086E7124B124A3B215F
:1046E0000E4800F0E5FF114B114AA521084800F0E3
:1046F000DFFF054B054A6821054800F0D9FF28680F
:10470000210000F007FFE2E740CA00104CCD001086
:104710005CCA0010E0CA001058CD0010C8C90010D3
:10472000FFFFFF0F0CCA0010E0CC0010C4C900103E
:104730003CCD0010F0B5DE4657464E464546E0B546
:104740008BB00990002308938200B24BD6583700F3
:1047500032E0B14BB14A3F21B14800F0A9FFB14B63
:10476000B14A3B21B14800F0A3FFB14BB14A8C21C3
:10477000AE4800F09DFFB04BAE4A9021AB4800F030
:1047800097FFA84BAD4A4021A84800F091FF2A6846
:104790006B68099800F096FC00239A4698467B685F
:1047A000BFF35F8F00221A6086F310884346002B08
:1047B00051D1002800D126E100F0F8FB02000B1EC9
:1047C000C7DB00200021069007917868EFF3108680
:1047D00072B601680029FCD0BFF35F8F3968884644
:1047E0004C7B002C32D0BAD0097B8C42B7D894498C
:1047F00065182D01B9688C46654428686968801A77
:1048000099410029C3DC01D10028C0D100214046D4
:1048100000F076FEA042A8D12A686B680692079342
:10482000AB689846EB689A464346002BA3D0002C11
:10483000A7D03B681B7B9C42A3D8631EFA68D35C5D
:1048400008931B02184338610020A8E700239A460A
:1048500098460020A3E7089B1B0223439946514634
:104860001800C04705000E007A68EFF3108B72B68F
:10487000136859424B41D9B2002BF9D1BFF35F8F76
:10488000002E26DB002E52DD3B69002B53D04B451A
:1048900072D100F08BFB02000B1E73DB01001800CD
:1048A00052197341984202D804D1914202D901228F
:1048B0005242D317002B6BDB00210491013103918D
:1048C000029451460191414600913800FFF778FE6D
:1048D00049E03B69002BD5D04B451CD1069A079B7C
:1048E00010001900521BB341994202D804D19042E2
:1048F00002D901225242D317002B12DB002104916E
:1049000001310391029451460191414600913800D2
:10491000FFF756FE27E04B4B464A9F21434800F0E5
:10492000C7FE3D4B3D4A3F213D4800F0C1FE002EF1
:1049300001D1002DA8D13A68002C45D0537B9C4270
:104940002CD1012100293FD1D37B002B42D1D4733C
:10495000002C52D03B681B7B9C424ED8FA68013C2D
:10496000135D0133135500233B617A68BFF35F8FFA
:1049700013608BF310881FE7324B2E4AA2212B487D
:1049800000F096FE244B254A3F21254800F090FE7A
:10499000214B224A3F21224800F08AFE002C0DD0F4
:1049A000137B9C420AD863001B19033B10688446A2
:1049B00063449B78002BC5D00121C3E7224B234AD7
:1049C0006821234800F074FE224B234AF621204838
:1049D00000F06EFE002B0AD0117B8B4207D85900E5
:1049E000CB18033B11688C4663445C70AFE7164BF1
:1049F000164A6821164800F05BFE0A4B0F4A402118
:104A00000A4800F055FE0BB0F0BCBB46B246A946C2
:104A1000A046F0BDD418002008CB0010ACCC00108C
:104A200024CB00100CCA0010E0CC0010C8C9001044
:104A300074CB0010C4CC00108CCB001004CD00103F
:104A4000FFFFFF0F98CB001040CA00104CCD0010A4
:104A50005CCA0010D4CB001018CD001010B50A4B62
:104A60005B68002B04D00A210848FFF7B9FC10BD91
:104A7000054C2300064A1021206800F061FC032148
:104A80002000FFF7B5FCEEE76C040020F01A0020D0
:104A90006144001010B5064B5B68002B01D0044840
:104AA00010BD044B044A5C21044800F001FEC046DE
:104AB0006C040020F8CB0010ECCC0010C8C900102A
:104AC000F0B5DE4657464E464546E0B58BB08046CB
:104AD00016001F00149B9A46159B994616AB1B782F
:104AE0009B461F2302AA9446634400221A7032E0B8
:104AF000002809D042461268127B904204D8421E18
:104B00004146C9688A5C48E0434B444A40214448D6
:104B100000F0CEFD0798002B75D05B46002B72D0BD
:104B20004946D04704000D0003000B4300D171E05B
:104B3000002946DB00F03AFA06000F1E55DB361955
:104B40006F41B94202D804D1B04202D9012676425F
:104B5000F717002F4FDB43465A68EFF3108472B605
:104B6000136859424B41D9B20791002BF8D1BFF3DA
:104B70005F8F1F3302AA9446634404930023039378
:104B800002934B4601935346009332003B0040464C
:104B9000FFF716FD031EABD1020041464968BFF383
:104BA0005F8F00250D6084F31088002B29D01F2310
:104BB00002A98C4663441B78002BABD11202104330
:104BC000A9E732003B00361BAF41BB4202D804D1FB
:104BD000B24202D901267642F717002FBBDA114BF9
:104BE000114A3F21114800F063FD0E4B0E4A3F2150
:104BF0000E4800F05DFD0B4B0B4A3F210B4800F0C7
:104C000057FD012040420BB0F0BCBB46B246A9465E
:104C1000A046F0BD0798F6E70CCA001004CD0010BE
:104C2000C8C9001008CB0010ACCC001024CB001079
:104C3000F8B504004268EFF3108572B61368584265
:104C40004341D8B2002BF9D1BFF35F8FCBB22268BA
:104C5000567BB3421BD10120002848D020698842EE
:104C60002BD0090AC9B2002B2ED02068007B8342CA
:104C70002AD8581EE668305C88422BD00020636832
:104C8000BFF35F8F00221A6085F31088F8BD002BF8
:104C90000DD0167BB3420AD85E00F618033E1768A3
:104CA000BC466644B678002ED6D00120D4E7134B1C
:104CB000134A6821134800F0FBFC8521124B134A6C
:104CC0004900134800F0F4FC124B134A40211048ED
:104CD00000F0EEFC1900100000F01CFC0028CED102
:104CE00012210E4B094AFF31094800F0E1FC23690B
:104CF0008B42C4D100232361C1E7C04640CA0010E3
:104D00004CCD00105CCA00101CCC001094CC0010DC
:104D1000C8C900100CCA001004CD001040CC00100F
:104D2000F0B587B006000F00FBF79DFA00281FD1F1
:104D300006246442E517A4197D41BD4202D803D17F
:104D4000B44201D900240025002D14DB04940595FC
:104D500000F02CF902000B1E13DBA41A9D41002D5C
:104D600017DC14D03000390000F02CF907B0F0BD8A
:104D7000234800F037FD234B234A3F21234800F00E
:104D800097FC204B204A3F21204800F091FC002C4A
:104D9000E8D0FFF77FFE0023029301931C4B0093A2
:104DA000049A059BFFF78CFE002818DADAE7002347
:104DB00000E00023002BD5D1164B1A68EFF31081C9
:104DC00072B61368002BFCD0BFF35F8F114B1B68CA
:104DD000BFF35F8F00221A6081F3108820BF04990F
:104DE000059A0D4B5B6A9A42E3D80B48806A884269
:104DF00003D29A42DBD00123DCE70123DAE7C04685
:104E000044CC001008CB0010ACCC001024CB001018
:104E100031440010F01A002000400540F8B50400AD
:104E20000D0000F0C3F802000B1E10DB200029006B
:104E3000801859418B4202D804D1824202D9012004
:104E40004042C117002908DBFFF76AFFF8BD064B97
:104E5000064A3F21064800F02BFC034B034A3F2142
:104E6000034800F025FCC04608CB0010ACCC001075
:104E700024CB001010B5FA2292000023002102F08A
:104E800031FEFFF7CBFF10BD70B584B006000C00FB
:104E9000FFF700FE002302930193194B00933200A9
:104EA0002300FFF70DFE051E11DD20BFFFF7F2FD09
:104EB0002900FFF7BDFE134B5B6A9C421BD8114AC9
:104EC000926AB2421AD29C4213D0012014E00D4BD8
:104ED0005B6A9C4209D80B4A926AB24207D29C4252
:104EE00001D0012008E0002006E0002004E00120BD
:104EF00002E0002000E0002004B070BD0120FBE7CC
:104F0000314400100040054070B5EFF305833F20A9
:104F100018401038EFF3108C72B6194B1B68002B39
:104F2000FBD0BFF35F8F012319008140154A516305
:104F3000154A12781400C440234214D0114B5C6A05
:104F40008300124D5B599C4206D38300104C1B59C1
:104F50008A430D490A7007E00A4A031D9B009958CD
:104F60009950002300E00023BFF35F8F044A002123
:104F700011608CF31088002B00D0984770BDC0469C
:104F8000280100D0004005402A1B0020FC1A002008
:104F90001813002010B50100024A0348FEF754FE22
:104FA00010BDC04678CD0010251B0020044B5B6A65
:104FB000034A906A1900536A9942F9D17047C04672
:104FC00000400540084B5B6A01E0074B5B6A8B427F
:104FD000FBD301E0044B5B6A8B4203D1024B9B6A1B
:104FE0008342F7D37047C0460040054070B50400C7
:104FF0000D00FFF7DBFF02000B00200029008018E6
:1050000059418B4202D804D1824202D90120404248
:10501000C117002902DBFFF7D5FF70BD024B034A21
:105020003F21034800F044FB08CB001028CE0010BD
:1050300024CB001070B504000D00EFF3108672B69B
:105040001B4B1B68002BFBD0BFF35F8F002D1CD0C8
:105050002000FEF7F7FE174B83420BD0190020000B
:10506000FEF70AFF01212000FEF7DCFE0123A3402A
:10507000114A1360A400114BE550BFF35F8F0C4B36
:1050800000221A6086F3108870BDA2000B4B00212D
:10509000D1500122A2400A490B7893430B70054975
:1050A0002000FFF72BF800212000FEF7BBFEE4E70D
:1050B000280100D0094F0010386005401813002067
:1050C0002A1B0020F0B5DE4600B584B004001500B0
:1050D00001921E000293FFF769FF03958E4202D8EA
:1050E0004ED185424CD9EFF3108B72B6274B1B681B
:1050F000002BFBD0BFF35F8F254A17780125A54011
:10510000EBB23B431370234B5D63221D9200019968
:10511000D150A2002049029850501B6A2B4212D154
:105120001C4B1B6C2B4208D00020BFF35F8F174B2A
:1051300000221A608BF3108823E0184B184AC12113
:10514000184800F0B5FAFFF731FF8E4214D802D1AB
:10515000039B834210D80E4B1B78BB420ED00D4BE5
:105160001D625D631F2004400123A3400E4A1360AB
:10517000074B1F701E38D8E70020D6E70120D4E780
:10518000012004B080BCBB46F0BDC046280100D061
:105190002A1B002000400540FC1A00209CCD001076
:1051A0000CCE0010C0CD001080E200E0EFF3108CB8
:1051B00072B60B4B1B68002BFBD0BFF35F8F012334
:1051C0008340084A136208490A789A430A70BFF379
:1051D0005F8F034B00221A608CF310887047C04623
:1051E000280100D0004005402A1B002010B50029EE
:1051F0001ED0037B99421BD84B005B18033B04680D
:10520000A4466344002919D0002A1DD0914221D020
:10521000002A25D0047BA24222D8046850008018BE
:10522000033820188170197800291FD11A7010BD19
:10523000104B114A6821114800F03AFA104B114AFC
:105240006F310E4800F034FA0F4B0E4A70210B48B4
:1052500000F02EFA0D4B0B4A7121084800F028FA95
:10526000044B054A6821054800F022FA41701A7083
:10527000DDE7C04640CA001038CF00105CCA0010FD
:10528000B0CA001024CF0010BCCA0010C8CA001059
:1052900070B506000D001400002914D0002A14D0A7
:1052A000806873689847002806D0220029003000E3
:1052B000FFF79CFF280007E02A0021003000FFF7DD
:1052C00095FF200000E0100070BD0800FCE7000022
:1052D00010B50023437301338373037BC37301232E
:1052E000027B9A4214D9002B0CD0027B934209D83E
:1052F0005A00D218033A01688C4662440133DBB28B
:105300005370EDE70B4B0C4A68210C4800F0D0F9C4
:10531000002A09D0924207D8016853009A18033A2C
:105320008A180023537010BD024B034A68210348BA
:1053300000F0BEF940CA001038CF00105CCA00105F
:1053400010B5017342608360FFF7C2FF10BD00001B
:1053500070B50400081E00D170BD002934D0237B35
:10536000994231D84B005B18033B22689446634452
:105370005A78002AF0D02DD0237B9A422AD85300A5
:105380009B18033B21688C4663445D78002159706B
:10539000002825D0237B984222D843001B18033BCA
:1053A00021688C4663440021597001002000FFF7FA
:1053B0006FFF060029002000FFF7CAFF020031003E
:1053C0002000FFF765FFC7E7084B094A6821094835
:1053D00000F06EF9054B064A6821064800F068F9AE
:1053E000024B034A6821034800F062F940CA0010EA
:1053F00038CF00105CCA001070B505000C00160014
:10540000002928D02DD0037B99422AD84B005B1865
:10541000033B0268944663445A78002A27D19A785D
:10542000002A2AD11978FFF793FF0300002E03D03A
:10543000EA7B002A27D1EC73002B37D1002C49D00E
:105440002B7B9C4246D82B6861000C19033C1C192D
:105450000023637070BD224B224A3821224800F09D
:1054600027F9224B224A6821224800F021F9224BD9
:105470001C4A3A211C4800F01BF9204B194A3B21D9
:10548000194800F015F9002A0AD0297B8A4207D86A
:1054900051008A18033A29688C4662445470CAE75E
:1054A000124B134A6821134800F002F9002B0BD06D
:1054B0002A7B934208D843001B18033B2A68944672
:1054C000634400229A70B9E7084B094A68210948E9
:1054D00000F0EEF8054B064A6821064800F0E8F8AF
:1054E00040CE001010CF001048CE001040CA00106F
:1054F00038CF00105CCA00108CCE0010B4CE001063
:1055000070B504000A00457B2900FFF775FF607342
:10551000280070BD70B50400002967D0437B8B4222
:105520000ED0002911D0037B99420ED84B005B1896
:10553000033B0268D0188378002B0CD1002056E082
:105540000121FFF7DDFF012051E0294B294A6821A5
:10555000294800F0ADF8002B20D0227B93421DD8C3
:105560005A00D318033B2268D2182568EB5C8B42A3
:105570001AD0002B1BD0227B934218D85A00D31884
:10558000033B2268D21853788B4216D0002BF0D1FF
:105590001A4B1B4A67211B4800F08AF8144B154A26
:1055A0006821154800F084F84378137007E0104B29
:1055B000104A6821104800F07BF8437853700023AC
:1055C0008370437001222000FFF716FF0200617B09
:1055D000814205D02000FFF75BFE6073012006E0EA
:1055E000094B074A6D21074800F062F8002070BDA2
:1055F00040CA001038CF00105CCA0010F8C8001074
:10560000F8CE001048CE0010D8CE001010B504001F
:10561000FEF776FB01002000FEF7E2FEFF23237178
:10562000BFF35F8F10BD10B50400FEF769FB0100EA
:105630002000FEF7D5FEFF23237100236371BFF323
:105640005F8F10BD034B9C46614489000160BFF32E
:105650005F8F70474000003410B504000120FEF752
:105660005DFB01002000FFF7EDFF10BD00BEFDE770
:1056700003000A4A1268002A08D0084A1068C318B2
:10568000074A9A4206D3054A13607047034A054900
:105690001160F2E701204042F7E7C046C81400203D
:1056A000000004202C1B002010B5FFF7DFFF0000D6
:1056B00010B582B00C001900002A0CD0084B002A4B
:1056C0000BD00192009323000200064802F0A8FCD0
:1056D0000120FFF7CBFF044BF1E7034AF1E7C04697
:1056E00018D0001028D00010B4C5001070B52B4B96
:1056F0002B4A1A602B4B2C4A1A602C4B9A682A4B67
:105700009343FAD12A4C01E008CC9847294B9C429C
:10571000FAD300F001F9234B274A1A60234B9B6808
:10572000DB43DB01FAD1254B40229A675A671A679F
:10573000DA66234C09E0234B234A83212348FFF7F1
:10574000B7FF2000FFF762FF0834214B9C4209D2CB
:105750002368002BF5D0012BEDD12000FFF763FF6C
:105760000834F2E71B4CA1681B4DC022280002F050
:10577000A1FAA560FAF777FD002800D000BEFEF779
:10578000AFFAFEF707FEFFF769F9144C01E008CC09
:105790009847134B9C42FAD370BDC04600E00040CE
:1057A000BFCDFBFE00F00040FE7F3C0000C000408B
:1057B000480D0020580D0020FFFFFF0100F00140C0
:1057C000400D002058D00010D4D0001078D0001028
:1057D000480D002000ED00E000000020580D0020E2
:1057E000600D00200FB400B583B0084802F0E6FB5E
:1057F000049B002B07D005A90191180002F0EEFBD5
:10580000034802F0DBFB0120FFF730FFC4D000109B
:105810006CC20010F8B5DE4657464E464546E0B528
:1058200005000F0092460A9A93424ED31A0E9146F3
:105830001E020A9A00233000494601F051FB8046BF
:105840006C006419A4002F4B9C4664446368834237
:1058500000D260602B1FDBB29B46012B3BD9C023DB
:105860009B012343802212011A60AB00264A9958FB
:10587000002905D0506901F0F1FA01300138FDD15D
:1058800053465A0123685A40E0231A4080235B01A3
:1058900023431A605A46012A28D980239B012343B7
:1058A000802212011A6043466360424600233000A2
:1058B000494601F015FBAD00134B58510120F0BCD7
:1058C000BB46B246A946A046F8BD104B104A2D2152
:1058D0001048FFF7EDFE012FC1D1C0239B012343E8
:1058E00003221A60A368DB07FCD5C9E72168794069
:1058F00003220A401A60A2680123BB401342FAD077
:10590000CBE7C046008000402C140020E4D00010FB
:1059100048D10010F8D0001030B583B00C2000F052
:105920001BF9FEF7D3F900280DD0002304E09900FD
:105930002D4A2E4888500133092BF8D92A4B2C4A7E
:105940005A6203B030BD2B4B00229A6700F076F903
:10595000294B01221A60274B5B6C012BFBD1274B93
:1059600003221A60234B9B6B012BFBD10133009365
:105970000433234A0121234800F04EF80523009305
:10598000214A0121214800F047F8214B00930022D1
:1059900002210420FFF73EFF1E4D00952B00002240
:1059A00001210520FFF736FF104C00942300002250
:1059B00000210720FFF72EFF009423000022002182
:1059C0000820FFF727FF0A4B009323000022002145
:1059D0000920FFF71FFF00952B0000220021062061
:1059E000FFF718FFADE7C0462C140020006CDC0266
:1059F0001BB70000008000403CB0004030B00040C9
:105A0000002F685900800240008C864700C0024089
:105A1000001BB70040597307F0B5C64600B5040037
:105A20000F0090461D000C2001F018FA06003D4AB8
:105A300042443D4B9A4243D843011B1A9901C91A6B
:105A4000C90009188901404601F008FA0200103A1D
:105A500098235B009A4239D86B1E062B3CD8069BD4
:105A6000013B062B38D8069B9D423BD343461A097F
:105A7000B2423DD32D04069B1E0335432368002B01
:105A80003CDB2A4B9C424AD080225201284B1A60B0
:105A9000284B1A60284B9B6811009943FAD1276064
:105AA000A060231DC02292011A43212313602368A2
:105AB000002BFCDAE5600823136080BCB846F0BD1B
:105AC0001E4B1F4A11211F48FFF7F2FD1E4B1C4AB7
:105AD00019211C48FFF7ECFD1C4B194A1C211948E1
